{
  "_format": "hh-sol-artifact-1",
  "contractName": "Election",
  "sourceName": "contracts/Election.sol",
  "abi": [
    {
      "inputs": [
        {
          "internalType": "bytes32[]",
          "name": "candidateNames",
          "type": "bytes32[]"
        }
      ],
      "stateMutability": "nonpayable",
      "type": "constructor"
    },
    {
      "inputs": [],
      "name": "admin",
      "outputs": [
        {
          "internalType": "address",
          "name": "",
          "type": "address"
        }
      ],
      "stateMutability": "view",
      "type": "function"
    },
    {
      "inputs": [
        {
          "internalType": "uint256",
          "name": "",
          "type": "uint256"
        }
      ],
      "name": "candidates",
      "outputs": [
        {
          "internalType": "bytes32",
          "name": "name",
          "type": "bytes32"
        },
        {
          "internalType": "uint256",
          "name": "voteCount",
          "type": "uint256"
        }
      ],
      "stateMutability": "view",
      "type": "function"
    },
    {
      "inputs": [],
      "name": "electionEnded",
      "outputs": [
        {
          "internalType": "bool",
          "name": "",
          "type": "bool"
        }
      ],
      "stateMutability": "view",
      "type": "function"
    },
    {
      "inputs": [
        {
          "internalType": "address",
          "name": "",
          "type": "address"
        }
      ],
      "name": "voters",
      "outputs": [
        {
          "internalType": "bool",
          "name": "voted",
          "type": "bool"
        },
        {
          "internalType": "uint256",
          "name": "vote",
          "type": "uint256"
        }
      ],
      "stateMutability": "view",
      "type": "function"
    }
  ],
  "bytecode": "0x608060405234801561001057600080fd5b506040516106dc3803806106dc833981810160405281019061003291906102c7565b6000600360006101000a81548160ff021916908315150217905550336000806101000a81548173ffffffffffffffffffffffffffffffffffffffff021916908373ffffffffffffffffffffffffffffffffffffffff16021790555060005b815181101561011d57600060405180604001604052808484815181106100b9576100b8610310565b5b6020026020010151815260200160008152509050600281908060018154018082558091505060019003906000526020600020906002020160009091909190915060008201518160000155602082015181600101555050508080600101915050610090565b505061033f565b6000604051905090565b600080fd5b600080fd5b600080fd5b6000601f19601f8301169050919050565b7f4e487b7100000000000000000000000000000000000000000000000000000000600052604160045260246000fd5b6101868261013d565b810181811067ffffffffffffffff821117156101a5576101a461014e565b5b80604052505050565b60006101b8610124565b90506101c4828261017d565b919050565b600067ffffffffffffffff8211156101e4576101e361014e565b5b602082029050602081019050919050565b600080fd5b6000819050919050565b61020d816101fa565b811461021857600080fd5b50565b60008151905061022a81610204565b92915050565b600061024361023e846101c9565b6101ae565b90508083825260208201905060208402830185811115610266576102656101f5565b5b835b8181101561028f578061027b888261021b565b845260208401935050602081019050610268565b5050509392505050565b600082601f8301126102ae576102ad610138565b5b81516102be848260208601610230565b91505092915050565b6000602082840312156102dd576102dc61012e565b5b600082015167ffffffffffffffff8111156102fb576102fa610133565b5b61030784828501610299565b91505092915050565b7f4e487b7100000000000000000000000000000000000000000000000000000000600052603260045260246000fd5b61038e8061034e6000396000f3fe608060405234801561001057600080fd5b506004361061004c5760003560e01c80633477ee2e14610051578063a3ec138d14610082578063c94ca9e3146100b3578063f851a440146100d1575b600080fd5b61006b600480360381019061006691906101c6565b6100ef565b60405161007992919061021b565b60405180910390f35b61009c600480360381019061009791906102a2565b610123565b6040516100aa9291906102ea565b60405180910390f35b6100bb610154565b6040516100c89190610313565b60405180910390f35b6100d9610167565b6040516100e6919061033d565b60405180910390f35b600281815481106100ff57600080fd5b90600052602060002090600202016000915090508060000154908060010154905082565b60016020528060005260406000206000915090508060000160009054906101000a900460ff16908060010154905082565b600360009054906101000a900460ff1681565b60008054906101000a900473ffffffffffffffffffffffffffffffffffffffff1681565b600080fd5b6000819050919050565b6101a381610190565b81146101ae57600080fd5b50565b6000813590506101c08161019a565b92915050565b6000602082840312156101dc576101db61018b565b5b60006101ea848285016101b1565b91505092915050565b6000819050919050565b610206816101f3565b82525050565b61021581610190565b82525050565b600060408201905061023060008301856101fd565b61023d602083018461020c565b9392505050565b600073ffffffffffffffffffffffffffffffffffffffff82169050919050565b600061026f82610244565b9050919050565b61027f81610264565b811461028a57600080fd5b50565b60008135905061029c81610276565b92915050565b6000602082840312156102b8576102b761018b565b5b60006102c68482850161028d565b91505092915050565b60008115159050919050565b6102e4816102cf565b82525050565b60006040820190506102ff60008301856102db565b61030c602083018461020c565b9392505050565b600060208201905061032860008301846102db565b92915050565b61033781610264565b82525050565b6000602082019050610352600083018461032e565b9291505056fea26469706673582212208c77e9354bf903ab79c355092e23ec0e5f1bcca724c08ec912bf1372a4074a2164736f6c634300081c0033",
  "linkReferences": {},
  "deployedLinkReferences": {}
}